{
  "_format": "hh-sol-artifact-1",
  "contractName": "GovernmentSupplyChain",
  "sourceName": "contracts/GovernmentSuppyChain.sol",
  "abi": [
    {
      "inputs": [
        {
          "internalType": "address",
          "name": "",
          "type": "address"
        }
      ],
      "name": "contractors",
      "outputs": [
        {
          "internalType": "address",
          "name": "contractorAddress",
          "type": "address"
        },
        {
          "internalType": "string",
          "name": "name",
          "type": "string"
        },
        {
          "internalType": "bool",
          "name": "isRegistered",
          "type": "bool"
        }
      ],
      "stateMutability": "view",
      "type": "function"
    },
    {
      "inputs": [
        {
          "internalType": "address",
          "name": "",
          "type": "address"
        }
      ],
      "name": "generalPublic",
      "outputs": [
        {
          "internalType": "address",
          "name": "publicAddress",
          "type": "address"
        },
        {
          "internalType": "string",
          "name": "name",
          "type": "string"
        },
        {
          "internalType": "bool",
          "name": "isRegistered",
          "type": "bool"
        }
      ],
      "stateMutability": "view",
      "type": "function"
    },
    {
      "inputs": [
        {
          "internalType": "address",
          "name": "",
          "type": "address"
        }
      ],
      "name": "governmentAgencies",
      "outputs": [
        {
          "internalType": "address",
          "name": "agencyAddress",
          "type": "address"
        },
        {
          "internalType": "string",
          "name": "name",
          "type": "string"
        },
        {
          "internalType": "bool",
          "name": "isRegistered",
          "type": "bool"
        }
      ],
      "stateMutability": "view",
      "type": "function"
    },
    {
      "inputs": [
        {
          "internalType": "address",
          "name": "",
          "type": "address"
        }
      ],
      "name": "manufacturers",
      "outputs": [
        {
          "internalType": "address",
          "name": "manufacturerAddress",
          "type": "address"
        },
        {
          "internalType": "string",
          "name": "name",
          "type": "string"
        },
        {
          "internalType": "bool",
          "name": "isRegistered",
          "type": "bool"
        }
      ],
      "stateMutability": "view",
      "type": "function"
    },
    {
      "inputs": [],
      "name": "nextOrderId",
      "outputs": [
        {
          "internalType": "uint256",
          "name": "",
          "type": "uint256"
        }
      ],
      "stateMutability": "view",
      "type": "function"
    },
    {
      "inputs": [
        {
          "internalType": "uint256",
          "name": "",
          "type": "uint256"
        }
      ],
      "name": "orders",
      "outputs": [
        {
          "internalType": "uint256",
          "name": "id",
          "type": "uint256"
        },
        {
          "components": [
            {
              "internalType": "string",
              "name": "name",
              "type": "string"
            },
            {
              "internalType": "uint256",
              "name": "quantity",
              "type": "uint256"
            },
            {
              "internalType": "address",
              "name": "supplier",
              "type": "address"
            },
            {
              "internalType": "bool",
              "name": "isDelivered",
              "type": "bool"
            }
          ],
          "internalType": "struct GovernmentSupplyChain.Product",
          "name": "product",
          "type": "tuple"
        },
        {
          "internalType": "address",
          "name": "buyer",
          "type": "address"
        },
        {
          "internalType": "bool",
          "name": "isApproved",
          "type": "bool"
        }
      ],
      "stateMutability": "view",
      "type": "function"
    },
    {
      "inputs": [
        {
          "internalType": "address",
          "name": "",
          "type": "address"
        }
      ],
      "name": "vendors",
      "outputs": [
        {
          "internalType": "address",
          "name": "vendorAddress",
          "type": "address"
        },
        {
          "internalType": "string",
          "name": "name",
          "type": "string"
        },
        {
          "internalType": "bool",
          "name": "isRegistered",
          "type": "bool"
        }
      ],
      "stateMutability": "view",
      "type": "function"
    }
  ],
  "bytecode": "0x6080604052348015600f57600080fd5b50610b738061001f6000396000f3fe608060405234801561001057600080fd5b506004361061007d5760003560e01c80638937d36a1161005b5780638937d36a14610104578063a85c38ef14610136578063e35569a614610169578063e81903221461019b5761007d565b806327e30c36146100825780632a58b330146100b45780636b5eb09c146100d2575b600080fd5b61009c60048036038101906100979190610805565b6101cd565b6040516100ab939291906108ec565b60405180910390f35b6100bc6102ac565b6040516100c99190610943565b60405180910390f35b6100ec60048036038101906100e79190610805565b6102b2565b6040516100fb939291906108ec565b60405180910390f35b61011e60048036038101906101199190610805565b610391565b60405161012d939291906108ec565b60405180910390f35b610150600480360381019061014b919061098a565b610470565b6040516101609493929190610a91565b60405180910390f35b610183600480360381019061017e9190610805565b6105e4565b604051610192939291906108ec565b60405180910390f35b6101b560048036038101906101b09190610805565b6106c3565b6040516101c4939291906108ec565b60405180910390f35b60006020528060005260406000206000915090508060000160009054906101000a900473ffffffffffffffffffffffffffffffffffffffff169080600101805461021690610b0c565b80601f016020809104026020016040519081016040528092919081815260200182805461024290610b0c565b801561028f5780601f106102645761010080835404028352916020019161028f565b820191906000526020600020905b81548152906001019060200180831161027257829003601f168201915b5050505050908060020160009054906101000a900460ff16905083565b60065481565b60036020528060005260406000206000915090508060000160009054906101000a900473ffffffffffffffffffffffffffffffffffffffff16908060010180546102fb90610b0c565b80601f016020809104026020016040519081016040528092919081815260200182805461032790610b0c565b80156103745780601f1061034957610100808354040283529160200191610374565b820191906000526020600020905b81548152906001019060200180831161035757829003601f168201915b5050505050908060020160009054906101000a900460ff16905083565b60046020528060005260406000206000915090508060000160009054906101000a900473ffffffffffffffffffffffffffffffffffffffff16908060010180546103da90610b0c565b80601f016020809104026020016040519081016040528092919081815260200182805461040690610b0c565b80156104535780601f1061042857610100808354040283529160200191610453565b820191906000526020600020905b81548152906001019060200180831161043657829003601f168201915b5050505050908060020160009054906101000a900460ff16905083565b6005602052806000526040600020600091509050806000015490806001016040518060800160405290816000820180546104a990610b0c565b80601f01602080910402602001604051908101604052809291908181526020018280546104d590610b0c565b80156105225780601f106104f757610100808354040283529160200191610522565b820191906000526020600020905b81548152906001019060200180831161050557829003601f168201915b50505050508152602001600182015481526020016002820160009054906101000a900473ffffffffffffffffffffffffffffffffffffffff1673ffffffffffffffffffffffffffffffffffffffff1673ffffffffffffffffffffffffffffffffffffffff1681526020016002820160149054906101000a900460ff161515151581525050908060040160009054906101000a900473ffffffffffffffffffffffffffffffffffffffff16908060040160149054906101000a900460ff16905084565b60016020528060005260406000206000915090508060000160009054906101000a900473ffffffffffffffffffffffffffffffffffffffff169080600101805461062d90610b0c565b80601f016020809104026020016040519081016040528092919081815260200182805461065990610b0c565b80156106a65780601f1061067b576101008083540402835291602001916106a6565b820191906000526020600020905b81548152906001019060200180831161068957829003601f168201915b5050505050908060020160009054906101000a900460ff16905083565b60026020528060005260406000206000915090508060000160009054906101000a900473ffffffffffffffffffffffffffffffffffffffff169080600101805461070c90610b0c565b80601f016020809104026020016040519081016040528092919081815260200182805461073890610b0c565b80156107855780601f1061075a57610100808354040283529160200191610785565b820191906000526020600020905b81548152906001019060200180831161076857829003601f168201915b5050505050908060020160009054906101000a900460ff16905083565b600080fd5b600073ffffffffffffffffffffffffffffffffffffffff82169050919050565b60006107d2826107a7565b9050919050565b6107e2816107c7565b81146107ed57600080fd5b50565b6000813590506107ff816107d9565b92915050565b60006020828403121561081b5761081a6107a2565b5b6000610829848285016107f0565b91505092915050565b61083b816107c7565b82525050565b600081519050919050565b600082825260208201905092915050565b60005b8381101561087b578082015181840152602081019050610860565b60008484015250505050565b6000601f19601f8301169050919050565b60006108a382610841565b6108ad818561084c565b93506108bd81856020860161085d565b6108c681610887565b840191505092915050565b60008115159050919050565b6108e6816108d1565b82525050565b60006060820190506109016000830186610832565b81810360208301526109138185610898565b905061092260408301846108dd565b949350505050565b6000819050919050565b61093d8161092a565b82525050565b60006020820190506109586000830184610934565b92915050565b6109678161092a565b811461097257600080fd5b50565b6000813590506109848161095e565b92915050565b6000602082840312156109a05761099f6107a2565b5b60006109ae84828501610975565b91505092915050565b600082825260208201905092915050565b60006109d382610841565b6109dd81856109b7565b93506109ed81856020860161085d565b6109f681610887565b840191505092915050565b610a0a8161092a565b82525050565b610a19816107c7565b82525050565b610a28816108d1565b82525050565b60006080830160008301518482036000860152610a4b82826109c8565b9150506020830151610a606020860182610a01565b506040830151610a736040860182610a10565b506060830151610a866060860182610a1f565b508091505092915050565b6000608082019050610aa66000830187610934565b8181036020830152610ab88186610a2e565b9050610ac76040830185610832565b610ad460608301846108dd565b95945050505050565b7f4e487b7100000000000000000000000000000000000000000000000000000000600052602260045260246000fd5b60006002820490506001821680610b2457607f821691505b602082108103610b3757610b36610add565b5b5091905056fea2646970667358221220a5f10c0191c67f925ab63c692a591dc5cbb7ddbc0cb039678a4bd87fe6a1fc3f64736f6c634300081c0033",
  "linkReferences": {},
  "deployedLinkReferences": {}
}